{
  "contractName": "DanToken",
  "abi": [
    {
      "inputs": [],
      "stateMutability": "nonpayable",
      "type": "constructor"
    },
    {
      "anonymous": false,
      "inputs": [
        {
          "indexed": true,
          "internalType": "address",
          "name": "owner",
          "type": "address"
        },
        {
          "indexed": true,
          "internalType": "address",
          "name": "spender",
          "type": "address"
        },
        {
          "indexed": false,
          "internalType": "uint256",
          "name": "value",
          "type": "uint256"
        }
      ],
      "name": "Approval",
      "type": "event"
    },
    {
      "anonymous": false,
      "inputs": [
        {
          "indexed": true,
          "internalType": "address",
          "name": "from",
          "type": "address"
        },
        {
          "indexed": true,
          "internalType": "address",
          "name": "to",
          "type": "address"
        },
        {
          "indexed": false,
          "internalType": "uint256",
          "name": "value",
          "type": "uint256"
        }
      ],
      "name": "Transfer",
      "type": "event"
    },
    {
      "inputs": [
        {
          "internalType": "address",
          "name": "owner",
          "type": "address"
        },
        {
          "internalType": "address",
          "name": "spender",
          "type": "address"
        }
      ],
      "name": "allowance",
      "outputs": [
        {
          "internalType": "uint256",
          "name": "",
          "type": "uint256"
        }
      ],
      "stateMutability": "view",
      "type": "function",
      "constant": true
    },
    {
      "inputs": [
        {
          "internalType": "address",
          "name": "spender",
          "type": "address"
        },
        {
          "internalType": "uint256",
          "name": "amount",
          "type": "uint256"
        }
      ],
      "name": "approve",
      "outputs": [
        {
          "internalType": "bool",
          "name": "",
          "type": "bool"
        }
      ],
      "stateMutability": "nonpayable",
      "type": "function"
    },
    {
      "inputs": [],
      "name": "balance",
      "outputs": [
        {
          "internalType": "uint256",
          "name": "",
          "type": "uint256"
        }
      ],
      "stateMutability": "view",
      "type": "function",
      "constant": true
    },
    {
      "inputs": [
        {
          "internalType": "address",
          "name": "account",
          "type": "address"
        }
      ],
      "name": "balanceOf",
      "outputs": [
        {
          "internalType": "uint256",
          "name": "",
          "type": "uint256"
        }
      ],
      "stateMutability": "view",
      "type": "function",
      "constant": true
    },
    {
      "inputs": [],
      "name": "decimals",
      "outputs": [
        {
          "internalType": "uint8",
          "name": "",
          "type": "uint8"
        }
      ],
      "stateMutability": "view",
      "type": "function",
      "constant": true
    },
    {
      "inputs": [
        {
          "internalType": "address",
          "name": "spender",
          "type": "address"
        },
        {
          "internalType": "uint256",
          "name": "subtractedValue",
          "type": "uint256"
        }
      ],
      "name": "decreaseAllowance",
      "outputs": [
        {
          "internalType": "bool",
          "name": "",
          "type": "bool"
        }
      ],
      "stateMutability": "nonpayable",
      "type": "function"
    },
    {
      "inputs": [
        {
          "internalType": "address",
          "name": "spender",
          "type": "address"
        },
        {
          "internalType": "uint256",
          "name": "addedValue",
          "type": "uint256"
        }
      ],
      "name": "increaseAllowance",
      "outputs": [
        {
          "internalType": "bool",
          "name": "",
          "type": "bool"
        }
      ],
      "stateMutability": "nonpayable",
      "type": "function"
    },
    {
      "inputs": [],
      "name": "name",
      "outputs": [
        {
          "internalType": "string",
          "name": "",
          "type": "string"
        }
      ],
      "stateMutability": "view",
      "type": "function",
      "constant": true
    },
    {
      "inputs": [],
      "name": "symbol",
      "outputs": [
        {
          "internalType": "string",
          "name": "",
          "type": "string"
        }
      ],
      "stateMutability": "view",
      "type": "function",
      "constant": true
    },
    {
      "inputs": [],
      "name": "totalSupply",
      "outputs": [
        {
          "internalType": "uint256",
          "name": "",
          "type": "uint256"
        }
      ],
      "stateMutability": "view",
      "type": "function",
      "constant": true
    },
    {
      "inputs": [
        {
          "internalType": "address",
          "name": "recipient",
          "type": "address"
        },
        {
          "internalType": "uint256",
          "name": "amount",
          "type": "uint256"
        }
      ],
      "name": "transfer",
      "outputs": [
        {
          "internalType": "bool",
          "name": "",
          "type": "bool"
        }
      ],
      "stateMutability": "nonpayable",
      "type": "function"
    },
    {
      "inputs": [
        {
          "internalType": "address",
          "name": "sender",
          "type": "address"
        },
        {
          "internalType": "address",
          "name": "recipient",
          "type": "address"
        },
        {
          "internalType": "uint256",
          "name": "amount",
          "type": "uint256"
        }
      ],
      "name": "transferFrom",
      "outputs": [
        {
          "internalType": "bool",
          "name": "",
          "type": "bool"
        }
      ],
      "stateMutability": "nonpayable",
      "type": "function"
    },
    {
      "inputs": [
        {
          "internalType": "address",
          "name": "to",
          "type": "address"
        },
        {
          "internalType": "uint256",
          "name": "amount",
          "type": "uint256"
        }
      ],
      "name": "mint",
      "outputs": [],
      "stateMutability": "payable",
      "type": "function",
      "payable": true
    }
  ],
  "bytecode": "0x608060405260006005553480156200001657600080fd5b506040518060400160405280600881526020017f44616e546f6b656e0000000000000000000000000000000000000000000000008152506040518060400160405280600381526020017f44414e000000000000000000000000000000000000000000000000000000000081525081600390805190602001906200009b929190620000fe565b508060049080519060200190620000b4929190620000fe565b50505033600660006101000a81548173ffffffffffffffffffffffffffffffffffffffff021916908373ffffffffffffffffffffffffffffffffffffffff16021790555062000213565b8280546200010c90620001ae565b90600052602060002090601f0160209004810192826200013057600085556200017c565b82601f106200014b57805160ff19168380011785556200017c565b828001600101855582156200017c579182015b828111156200017b5782518255916020019190600101906200015e565b5b5090506200018b91906200018f565b5090565b5b80821115620001aa57600081600090555060010162000190565b5090565b60006002820490506001821680620001c757607f821691505b60208210811415620001de57620001dd620001e4565b5b50919050565b7f4e487b7100000000000000000000000000000000000000000000000000000000600052602260045260246000fd5b61172c80620002236000396000f3fe6080604052600436106100c25760003560e01c806340c10f191161007f578063a457c2d711610059578063a457c2d714610283578063a9059cbb146102c0578063b69ef8a8146102fd578063dd62ed3e14610328576100c2565b806340c10f19146101ff57806370a082311461021b57806395d89b4114610258576100c2565b806306fdde03146100c7578063095ea7b3146100f257806318160ddd1461012f57806323b872dd1461015a578063313ce5671461019757806339509351146101c2575b600080fd5b3480156100d357600080fd5b506100dc610365565b6040516100e9919061113a565b60405180910390f35b3480156100fe57600080fd5b5061011960048036038101906101149190610f42565b6103f7565b604051610126919061111f565b60405180910390f35b34801561013b57600080fd5b50610144610415565b604051610151919061127c565b60405180910390f35b34801561016657600080fd5b50610181600480360381019061017c9190610ef3565b61041f565b60405161018e919061111f565b60405180910390f35b3480156101a357600080fd5b506101ac610517565b6040516101b99190611297565b60405180910390f35b3480156101ce57600080fd5b506101e960048036038101906101e49190610f42565b610520565b6040516101f6919061111f565b60405180910390f35b61021960048036038101906102149190610f42565b6105cc565b005b34801561022757600080fd5b50610242600480360381019061023d9190610e8e565b610636565b60405161024f919061127c565b60405180910390f35b34801561026457600080fd5b5061026d61067e565b60405161027a919061113a565b60405180910390f35b34801561028f57600080fd5b506102aa60048036038101906102a59190610f42565b610710565b6040516102b7919061111f565b60405180910390f35b3480156102cc57600080fd5b506102e760048036038101906102e29190610f42565b6107fb565b6040516102f4919061111f565b60405180910390f35b34801561030957600080fd5b50610312610819565b60405161031f919061127c565b60405180910390f35b34801561033457600080fd5b5061034f600480360381019061034a9190610eb7565b61081f565b60405161035c919061127c565b60405180910390f35b606060038054610374906113ac565b80601f01602080910402602001604051908101604052809291908181526020018280546103a0906113ac565b80156103ed5780601f106103c2576101008083540402835291602001916103ed565b820191906000526020600020905b8154815290600101906020018083116103d057829003601f168201915b5050505050905090565b600061040b6104046108a6565b84846108ae565b6001905092915050565b6000600254905090565b600061042c848484610a79565b6000600160008673ffffffffffffffffffffffffffffffffffffffff1673ffffffffffffffffffffffffffffffffffffffff16815260200190815260200160002060006104776108a6565b73ffffffffffffffffffffffffffffffffffffffff1673ffffffffffffffffffffffffffffffffffffffff168152602001908152602001600020549050828110156104f7576040517f08c379a00000000000000000000000000000000000000000000000000000000081526004016104ee906111bc565b60405180910390fd5b61050b856105036108a6565b8584036108ae565b60019150509392505050565b60006012905090565b60006105c261052d6108a6565b84846001600061053b6108a6565b73ffffffffffffffffffffffffffffffffffffffff1673ffffffffffffffffffffffffffffffffffffffff16815260200190815260200160002060008873ffffffffffffffffffffffffffffffffffffffff1673ffffffffffffffffffffffffffffffffffffffff168152602001908152602001600020546105bd91906112ce565b6108ae565b6001905092915050565b6001341161060f576040517f08c379a00000000000000000000000000000000000000000000000000000000081526004016106069061121c565b60405180910390fd5b346005600082825461062191906112ce565b925050819055506106328282610cfa565b5050565b60008060008373ffffffffffffffffffffffffffffffffffffffff1673ffffffffffffffffffffffffffffffffffffffff168152602001908152602001600020549050919050565b60606004805461068d906113ac565b80601f01602080910402602001604051908101604052809291908181526020018280546106b9906113ac565b80156107065780601f106106db57610100808354040283529160200191610706565b820191906000526020600020905b8154815290600101906020018083116106e957829003601f168201915b5050505050905090565b6000806001600061071f6108a6565b73ffffffffffffffffffffffffffffffffffffffff1673ffffffffffffffffffffffffffffffffffffffff16815260200190815260200160002060008573ffffffffffffffffffffffffffffffffffffffff1673ffffffffffffffffffffffffffffffffffffffff168152602001908152602001600020549050828110156107dc576040517f08c379a00000000000000000000000000000000000000000000000000000000081526004016107d39061123c565b60405180910390fd5b6107f06107e76108a6565b858584036108ae565b600191505092915050565b600061080f6108086108a6565b8484610a79565b6001905092915050565b60055481565b6000600160008473ffffffffffffffffffffffffffffffffffffffff1673ffffffffffffffffffffffffffffffffffffffff16815260200190815260200160002060008373ffffffffffffffffffffffffffffffffffffffff1673ffffffffffffffffffffffffffffffffffffffff16815260200190815260200160002054905092915050565b600033905090565b600073ffffffffffffffffffffffffffffffffffffffff168373ffffffffffffffffffffffffffffffffffffffff16141561091e576040517f08c379a0000000000000000000000000000000000000000000000000000000008152600401610915906111fc565b60405180910390fd5b600073ffffffffffffffffffffffffffffffffffffffff168273ffffffffffffffffffffffffffffffffffffffff16141561098e576040517f08c379a00000000000000000000000000000000000000000000000000000000081526004016109859061117c565b60405180910390fd5b80600160008573ffffffffffffffffffffffffffffffffffffffff1673ffffffffffffffffffffffffffffffffffffffff16815260200190815260200160002060008473ffffffffffffffffffffffffffffffffffffffff1673ffffffffffffffffffffffffffffffffffffffff168152602001908152602001600020819055508173ffffffffffffffffffffffffffffffffffffffff168373ffffffffffffffffffffffffffffffffffffffff167f8c5be1e5ebec7d5bd14f71427d1e84f3dd0314c0f7b2291e5b200ac8c7c3b92583604051610a6c919061127c565b60405180910390a3505050565b600073ffffffffffffffffffffffffffffffffffffffff168373ffffffffffffffffffffffffffffffffffffffff161415610ae9576040517f08c379a0000000000000000000000000000000000000000000000000000000008152600401610ae0906111dc565b60405180910390fd5b600073ffffffffffffffffffffffffffffffffffffffff168273ffffffffffffffffffffffffffffffffffffffff161415610b59576040517f08c379a0000000000000000000000000000000000000000000000000000000008152600401610b509061115c565b60405180910390fd5b610b64838383610e5a565b60008060008573ffffffffffffffffffffffffffffffffffffffff1673ffffffffffffffffffffffffffffffffffffffff16815260200190815260200160002054905081811015610bea576040517f08c379a0000000000000000000000000000000000000000000000000000000008152600401610be19061119c565b60405180910390fd5b8181036000808673ffffffffffffffffffffffffffffffffffffffff1673ffffffffffffffffffffffffffffffffffffffff16815260200190815260200160002081905550816000808573ffffffffffffffffffffffffffffffffffffffff1673ffffffffffffffffffffffffffffffffffffffff1681526020019081526020016000206000828254610c7d91906112ce565b925050819055508273ffffffffffffffffffffffffffffffffffffffff168473ffffffffffffffffffffffffffffffffffffffff167fddf252ad1be2c89b69c2b068fc378daa952ba7f163c4a11628f55a4df523b3ef84604051610ce1919061127c565b60405180910390a3610cf4848484610e5f565b50505050565b600073ffffffffffffffffffffffffffffffffffffffff168273ffffffffffffffffffffffffffffffffffffffff161415610d6a576040517f08c379a0000000000000000000000000000000000000000000000000000000008152600401610d619061125c565b60405180910390fd5b610d7660008383610e5a565b8060026000828254610d8891906112ce565b92505081905550806000808473ffffffffffffffffffffffffffffffffffffffff1673ffffffffffffffffffffffffffffffffffffffff1681526020019081526020016000206000828254610ddd91906112ce565b925050819055508173ffffffffffffffffffffffffffffffffffffffff16600073ffffffffffffffffffffffffffffffffffffffff167fddf252ad1be2c89b69c2b068fc378daa952ba7f163c4a11628f55a4df523b3ef83604051610e42919061127c565b60405180910390a3610e5660008383610e5f565b5050565b505050565b505050565b600081359050610e73816116c8565b92915050565b600081359050610e88816116df565b92915050565b600060208284031215610ea057600080fd5b6000610eae84828501610e64565b91505092915050565b60008060408385031215610eca57600080fd5b6000610ed885828601610e64565b9250506020610ee985828601610e64565b9150509250929050565b600080600060608486031215610f0857600080fd5b6000610f1686828701610e64565b9350506020610f2786828701610e64565b9250506040610f3886828701610e79565b9150509250925092565b60008060408385031215610f5557600080fd5b6000610f6385828601610e64565b9250506020610f7485828601610e79565b9150509250929050565b610f8781611336565b82525050565b6000610f98826112b2565b610fa281856112bd565b9350610fb2818560208601611379565b610fbb8161143c565b840191505092915050565b6000610fd36023836112bd565b9150610fde8261144d565b604082019050919050565b6000610ff66022836112bd565b91506110018261149c565b604082019050919050565b60006110196026836112bd565b9150611024826114eb565b604082019050919050565b600061103c6028836112bd565b91506110478261153a565b604082019050919050565b600061105f6025836112bd565b915061106a82611589565b604082019050919050565b60006110826024836112bd565b915061108d826115d8565b604082019050919050565b60006110a56014836112bd565b91506110b082611627565b602082019050919050565b60006110c86025836112bd565b91506110d382611650565b604082019050919050565b60006110eb601f836112bd565b91506110f68261169f565b602082019050919050565b61110a81611362565b82525050565b6111198161136c565b82525050565b60006020820190506111346000830184610f7e565b92915050565b600060208201905081810360008301526111548184610f8d565b905092915050565b6000602082019050818103600083015261117581610fc6565b9050919050565b6000602082019050818103600083015261119581610fe9565b9050919050565b600060208201905081810360008301526111b58161100c565b9050919050565b600060208201905081810360008301526111d58161102f565b9050919050565b600060208201905081810360008301526111f581611052565b9050919050565b6000602082019050818103600083015261121581611075565b9050919050565b6000602082019050818103600083015261123581611098565b9050919050565b60006020820190508181036000830152611255816110bb565b9050919050565b60006020820190508181036000830152611275816110de565b9050919050565b60006020820190506112916000830184611101565b92915050565b60006020820190506112ac6000830184611110565b92915050565b600081519050919050565b600082825260208201905092915050565b60006112d982611362565b91506112e483611362565b9250827fffffffffffffffffffffffffffffffffffffffffffffffffffffffffffffffff03821115611319576113186113de565b5b828201905092915050565b600061132f82611342565b9050919050565b60008115159050919050565b600073ffffffffffffffffffffffffffffffffffffffff82169050919050565b6000819050919050565b600060ff82169050919050565b60005b8381101561139757808201518184015260208101905061137c565b838111156113a6576000848401525b50505050565b600060028204905060018216806113c457607f821691505b602082108114156113d8576113d761140d565b5b50919050565b7f4e487b7100000000000000000000000000000000000000000000000000000000600052601160045260246000fd5b7f4e487b7100000000000000000000000000000000000000000000000000000000600052602260045260246000fd5b6000601f19601f8301169050919050565b7f45524332303a207472616e7366657220746f20746865207a65726f206164647260008201527f6573730000000000000000000000000000000000000000000000000000000000602082015250565b7f45524332303a20617070726f766520746f20746865207a65726f20616464726560008201527f7373000000000000000000000000000000000000000000000000000000000000602082015250565b7f45524332303a207472616e7366657220616d6f756e742065786365656473206260008201527f616c616e63650000000000000000000000000000000000000000000000000000602082015250565b7f45524332303a207472616e7366657220616d6f756e742065786365656473206160008201527f6c6c6f77616e6365000000000000000000000000000000000000000000000000602082015250565b7f45524332303a207472616e736665722066726f6d20746865207a65726f20616460008201527f6472657373000000000000000000000000000000000000000000000000000000602082015250565b7f45524332303a20617070726f76652066726f6d20746865207a65726f2061646460008201527f7265737300000000000000000000000000000000000000000000000000000000602082015250565b7f4d696e2031206574686572207265717569726564000000000000000000000000600082015250565b7f45524332303a2064656372656173656420616c6c6f77616e63652062656c6f7760008201527f207a65726f000000000000000000000000000000000000000000000000000000602082015250565b7f45524332303a206d696e7420746f20746865207a65726f206164647265737300600082015250565b6116d181611324565b81146116dc57600080fd5b50565b6116e881611362565b81146116f357600080fd5b5056fea2646970667358221220cb976cd771324ac6f63f460eb0bcfc8a52c05dd943af4de2a37347d1bc2b3acd64736f6c63430008040033",
  "immutableReferences": {},
  "source": "// SPDX-License-Identifier: MIT\npragma solidity ^0.8.2;\n\nimport \"@openzeppelin/contracts/token/ERC20/ERC20.sol\";\n\ncontract DanToken is ERC20 {\n    uint256 public balance = 0;\n    address owner;\n    constructor() ERC20(\"DanToken\", \"DAN\") {\n        owner = msg.sender; \n    }\n\n    function mint(address to, uint256 amount) public payable {\n        require(msg.value > 1, \"Min 1 ether required\");\n        balance += msg.value;\n        _mint(to, amount);\n    }\n    \n}",
  "sourcePath": "/Users/Danish.A.J/Documents/ethereum_marketplace/contracts/DanToken.sol",
  "compiler": {
    "name": "solc",
    "version": "0.8.4+commit.c7e474f2.Emscripten.clang"
  },
  "schemaVersion": "3.4.3",
  "updatedAt": "2021-11-08T06:57:00.628Z",
  "networkType": "ethereum",
  "devdoc": {
    "kind": "dev",
    "methods": {
      "allowance(address,address)": {
        "details": "See {IERC20-allowance}."
      },
      "approve(address,uint256)": {
        "details": "See {IERC20-approve}. Requirements: - `spender` cannot be the zero address."
      },
      "balanceOf(address)": {
        "details": "See {IERC20-balanceOf}."
      },
      "decimals()": {
        "details": "Returns the number of decimals used to get its user representation. For example, if `decimals` equals `2`, a balance of `505` tokens should be displayed to a user as `5.05` (`505 / 10 ** 2`). Tokens usually opt for a value of 18, imitating the relationship between Ether and Wei. This is the value {ERC20} uses, unless this function is overridden; NOTE: This information is only used for _display_ purposes: it in no way affects any of the arithmetic of the contract, including {IERC20-balanceOf} and {IERC20-transfer}."
      },
      "decreaseAllowance(address,uint256)": {
        "details": "Atomically decreases the allowance granted to `spender` by the caller. This is an alternative to {approve} that can be used as a mitigation for problems described in {IERC20-approve}. Emits an {Approval} event indicating the updated allowance. Requirements: - `spender` cannot be the zero address. - `spender` must have allowance for the caller of at least `subtractedValue`."
      },
      "increaseAllowance(address,uint256)": {
        "details": "Atomically increases the allowance granted to `spender` by the caller. This is an alternative to {approve} that can be used as a mitigation for problems described in {IERC20-approve}. Emits an {Approval} event indicating the updated allowance. Requirements: - `spender` cannot be the zero address."
      },
      "name()": {
        "details": "Returns the name of the token."
      },
      "symbol()": {
        "details": "Returns the symbol of the token, usually a shorter version of the name."
      },
      "totalSupply()": {
        "details": "See {IERC20-totalSupply}."
      },
      "transfer(address,uint256)": {
        "details": "See {IERC20-transfer}. Requirements: - `recipient` cannot be the zero address. - the caller must have a balance of at least `amount`."
      },
      "transferFrom(address,address,uint256)": {
        "details": "See {IERC20-transferFrom}. Emits an {Approval} event indicating the updated allowance. This is not required by the EIP. See the note at the beginning of {ERC20}. Requirements: - `sender` and `recipient` cannot be the zero address. - `sender` must have a balance of at least `amount`. - the caller must have allowance for ``sender``'s tokens of at least `amount`."
      }
    },
    "version": 1
  },
  "userdoc": {
    "kind": "user",
    "methods": {},
    "version": 1
  }
}