{
  "contractName": "NftMarket",
  "abi": [
    {
      "inputs": [],
      "stateMutability": "nonpayable",
      "type": "constructor"
    },
    {
      "anonymous": false,
      "inputs": [
        {
          "indexed": true,
          "internalType": "address",
          "name": "_from",
          "type": "address"
        },
        {
          "indexed": true,
          "internalType": "address",
          "name": "_to",
          "type": "address"
        },
        {
          "indexed": true,
          "internalType": "uint256",
          "name": "_tokenId",
          "type": "uint256"
        },
        {
          "indexed": false,
          "internalType": "uint256",
          "name": "_price",
          "type": "uint256"
        }
      ],
      "name": "Transfer",
      "type": "event"
    },
    {
      "inputs": [
        {
          "internalType": "uint256",
          "name": "marketItemId",
          "type": "uint256"
        }
      ],
      "name": "getMarketItem",
      "outputs": [
        {
          "components": [
            {
              "internalType": "uint256",
              "name": "itemId",
              "type": "uint256"
            },
            {
              "internalType": "address",
              "name": "nftContract",
              "type": "address"
            },
            {
              "internalType": "uint256",
              "name": "tokenId",
              "type": "uint256"
            },
            {
              "internalType": "bool",
              "name": "status",
              "type": "bool"
            },
            {
              "internalType": "address",
              "name": "owner",
              "type": "address"
            },
            {
              "internalType": "uint256",
              "name": "price",
              "type": "uint256"
            }
          ],
          "internalType": "struct NftMarket.MarketItem",
          "name": "",
          "type": "tuple"
        }
      ],
      "stateMutability": "view",
      "type": "function",
      "constant": true
    },
    {
      "inputs": [
        {
          "internalType": "address",
          "name": "nftContract",
          "type": "address"
        },
        {
          "internalType": "uint256",
          "name": "tokenId",
          "type": "uint256"
        },
        {
          "internalType": "uint256",
          "name": "price",
          "type": "uint256"
        },
        {
          "internalType": "bool",
          "name": "status",
          "type": "bool"
        }
      ],
      "name": "createMarketItem",
      "outputs": [],
      "stateMutability": "nonpayable",
      "type": "function"
    },
    {
      "inputs": [
        {
          "internalType": "address",
          "name": "nftContract",
          "type": "address"
        },
        {
          "internalType": "address",
          "name": "tokenContract",
          "type": "address"
        },
        {
          "internalType": "uint256",
          "name": "itemId",
          "type": "uint256"
        }
      ],
      "name": "createMarketSale",
      "outputs": [],
      "stateMutability": "nonpayable",
      "type": "function"
    },
    {
      "inputs": [
        {
          "internalType": "uint256",
          "name": "_itemId",
          "type": "uint256"
        },
        {
          "internalType": "uint256",
          "name": "_newPrice",
          "type": "uint256"
        }
      ],
      "name": "updatePrice",
      "outputs": [],
      "stateMutability": "nonpayable",
      "type": "function"
    },
    {
      "inputs": [
        {
          "internalType": "uint256",
          "name": "_itemId",
          "type": "uint256"
        },
        {
          "internalType": "bool",
          "name": "_status",
          "type": "bool"
        },
        {
          "internalType": "address",
          "name": "nftContract",
          "type": "address"
        }
      ],
      "name": "updateNftStatus",
      "outputs": [],
      "stateMutability": "nonpayable",
      "type": "function"
    },
    {
      "inputs": [],
      "name": "fetchMarketItems",
      "outputs": [
        {
          "components": [
            {
              "internalType": "uint256",
              "name": "itemId",
              "type": "uint256"
            },
            {
              "internalType": "address",
              "name": "nftContract",
              "type": "address"
            },
            {
              "internalType": "uint256",
              "name": "tokenId",
              "type": "uint256"
            },
            {
              "internalType": "bool",
              "name": "status",
              "type": "bool"
            },
            {
              "internalType": "address",
              "name": "owner",
              "type": "address"
            },
            {
              "internalType": "uint256",
              "name": "price",
              "type": "uint256"
            }
          ],
          "internalType": "struct NftMarket.MarketItem[]",
          "name": "",
          "type": "tuple[]"
        }
      ],
      "stateMutability": "view",
      "type": "function",
      "constant": true
    },
    {
      "inputs": [],
      "name": "fetchMyNFTs",
      "outputs": [
        {
          "components": [
            {
              "internalType": "uint256",
              "name": "itemId",
              "type": "uint256"
            },
            {
              "internalType": "address",
              "name": "nftContract",
              "type": "address"
            },
            {
              "internalType": "uint256",
              "name": "tokenId",
              "type": "uint256"
            },
            {
              "internalType": "bool",
              "name": "status",
              "type": "bool"
            },
            {
              "internalType": "address",
              "name": "owner",
              "type": "address"
            },
            {
              "internalType": "uint256",
              "name": "price",
              "type": "uint256"
            }
          ],
          "internalType": "struct NftMarket.MarketItem[]",
          "name": "",
          "type": "tuple[]"
        }
      ],
      "stateMutability": "view",
      "type": "function",
      "constant": true
    }
  ],
  "bytecode": "0x608060405234801561001057600080fd5b506001600081905550611a9c806100286000396000f3fe608060405234801561001057600080fd5b506004361061007d5760003560e01c806382367b2d1161005b57806382367b2d146100da578063a2118365146100f6578063c7be7a4914610112578063e814ce78146101425761007d565b80630f08efe014610082578063202e3740146100a057806330b22809146100be575b600080fd5b61008a61015e565b60405161009791906116d6565b60405180910390f35b6100a8610420565b6040516100b591906116d6565b60405180910390f35b6100d860048036038101906100d39190611385565b610764565b005b6100f460048036038101906100ef91906113d4565b61097b565b005b610110600480360381019061010b9190611281565b610a94565b005b61012c6004803603810190610127919061135c565b610e2f565b6040516101399190611798565b60405180910390f35b61015c600480360381019061015791906112d0565b610f41565b005b6060600061016c60016111a5565b905060008060005b838110156101d4576003600060018361018d9190611818565b815260200190815260200160002060030160009054906101000a900460ff16156101c1576001836101be9190611818565b92505b80806101cc906118b6565b915050610174565b5060008267ffffffffffffffff811115610217577f4e487b7100000000000000000000000000000000000000000000000000000000600052604160045260246000fd5b60405190808252806020026020018201604052801561025057816020015b61023d6111c9565b8152602001906001900390816102355790505b50905060005b84811015610415576003600060018361026f9190611818565b815260200190815260200160002060030160009054906101000a900460ff16156104025760006001826102a29190611818565b90506000600360008381526020019081526020016000209050806040518060c0016040529081600082015481526020016001820160009054906101000a900473ffffffffffffffffffffffffffffffffffffffff1673ffffffffffffffffffffffffffffffffffffffff1673ffffffffffffffffffffffffffffffffffffffff168152602001600282015481526020016003820160009054906101000a900460ff161515151581526020016003820160019054906101000a900473ffffffffffffffffffffffffffffffffffffffff1673ffffffffffffffffffffffffffffffffffffffff1673ffffffffffffffffffffffffffffffffffffffff1681526020016004820154815250508486815181106103e5577f4e487b7100000000000000000000000000000000000000000000000000000000600052603260045260246000fd5b60200260200101819052506001856103fd9190611818565b945050505b808061040d906118b6565b915050610256565b508094505050505090565b6060600061042e60016111a5565b905060008060005b838110156104d7573373ffffffffffffffffffffffffffffffffffffffff16600360006001846104669190611818565b815260200190815260200160002060030160019054906101000a900473ffffffffffffffffffffffffffffffffffffffff1673ffffffffffffffffffffffffffffffffffffffff1614156104c4576001836104c19190611818565b92505b80806104cf906118b6565b915050610436565b5060008267ffffffffffffffff81111561051a577f4e487b7100000000000000000000000000000000000000000000000000000000600052604160045260246000fd5b60405190808252806020026020018201604052801561055357816020015b6105406111c9565b8152602001906001900390816105385790505b50905060005b84811015610759573373ffffffffffffffffffffffffffffffffffffffff16600360006001846105899190611818565b815260200190815260200160002060030160019054906101000a900473ffffffffffffffffffffffffffffffffffffffff1673ffffffffffffffffffffffffffffffffffffffff1614156107465760006001826105e69190611818565b90506000600360008381526020019081526020016000209050806040518060c0016040529081600082015481526020016001820160009054906101000a900473ffffffffffffffffffffffffffffffffffffffff1673ffffffffffffffffffffffffffffffffffffffff1673ffffffffffffffffffffffffffffffffffffffff168152602001600282015481526020016003820160009054906101000a900460ff161515151581526020016003820160019054906101000a900473ffffffffffffffffffffffffffffffffffffffff1673ffffffffffffffffffffffffffffffffffffffff1673ffffffffffffffffffffffffffffffffffffffff168152602001600482015481525050848681518110610729577f4e487b7100000000000000000000000000000000000000000000000000000000600052603260045260246000fd5b60200260200101819052506001856107419190611818565b945050505b8080610751906118b6565b915050610559565b508094505050505090565b600260005414156107aa576040517f08c379a00000000000000000000000000000000000000000000000000000000081526004016107a190611758565b60405180910390fd5b60026000819055506003600084815260200190815260200160002060030160019054906101000a900473ffffffffffffffffffffffffffffffffffffffff1673ffffffffffffffffffffffffffffffffffffffff163373ffffffffffffffffffffffffffffffffffffffff1614610856576040517f08c379a000000000000000000000000000000000000000000000000000000000815260040161084d90611738565b60405180910390fd5b81156108d0578073ffffffffffffffffffffffffffffffffffffffff166323b872dd3330866040518463ffffffff1660e01b815260040161089993929190611676565b600060405180830381600087803b1580156108b357600080fd5b505af11580156108c7573d6000803e3d6000fd5b50505050610940565b8073ffffffffffffffffffffffffffffffffffffffff166323b872dd3033866040518463ffffffff1660e01b815260040161090d93929190611676565b600060405180830381600087803b15801561092757600080fd5b505af115801561093b573d6000803e3d6000fd5b505050505b816003600085815260200190815260200160002060030160006101000a81548160ff0219169083151502179055506001600081905550505050565b600260005414156109c1576040517f08c379a00000000000000000000000000000000000000000000000000000000081526004016109b890611758565b60405180910390fd5b60026000819055506003600083815260200190815260200160002060030160019054906101000a900473ffffffffffffffffffffffffffffffffffffffff1673ffffffffffffffffffffffffffffffffffffffff163373ffffffffffffffffffffffffffffffffffffffff1614610a6d576040517f08c379a0000000000000000000000000000000000000000000000000000000008152600401610a6490611738565b60405180910390fd5b80600360008481526020019081526020016000206004018190555060016000819055505050565b60026000541415610ada576040517f08c379a0000000000000000000000000000000000000000000000000000000008152600401610ad190611758565b60405180910390fd5b600260008190555060006003600083815260200190815260200160002060040154905060006003600084815260200190815260200160002060020154905060006003600085815260200190815260200160002060030160019054906101000a900473ffffffffffffffffffffffffffffffffffffffff1690508473ffffffffffffffffffffffffffffffffffffffff166323b872dd3330866040518463ffffffff1660e01b8152600401610b9093929190611676565b602060405180830381600087803b158015610baa57600080fd5b505af1158015610bbe573d6000803e3d6000fd5b505050506040513d601f19601f82011682018060405250810190610be29190611333565b610c21576040517f08c379a0000000000000000000000000000000000000000000000000000000008152600401610c1890611718565b60405180910390fd5b8473ffffffffffffffffffffffffffffffffffffffff1663a9059cbb82856040518363ffffffff1660e01b8152600401610c5c9291906116ad565b602060405180830381600087803b158015610c7657600080fd5b505af1158015610c8a573d6000803e3d6000fd5b505050506040513d601f19601f82011682018060405250810190610cae9190611333565b610ced576040517f08c379a0000000000000000000000000000000000000000000000000000000008152600401610ce4906116f8565b60405180910390fd5b8573ffffffffffffffffffffffffffffffffffffffff1663095ea7b333846040518363ffffffff1660e01b8152600401610d289291906116ad565b600060405180830381600087803b158015610d4257600080fd5b505af1158015610d56573d6000803e3d6000fd5b50505050336003600086815260200190815260200160002060030160016101000a81548173ffffffffffffffffffffffffffffffffffffffff021916908373ffffffffffffffffffffffffffffffffffffffff160217905550610db960026111b3565b813373ffffffffffffffffffffffffffffffffffffffff168273ffffffffffffffffffffffffffffffffffffffff167f9ed053bb818ff08b8353cd46f78db1f0799f31c9e4458fdb425c10eccd2efc4486604051610e1791906117b3565b60405180910390a45050506001600081905550505050565b610e376111c9565b600360008381526020019081526020016000206040518060c0016040529081600082015481526020016001820160009054906101000a900473ffffffffffffffffffffffffffffffffffffffff1673ffffffffffffffffffffffffffffffffffffffff1673ffffffffffffffffffffffffffffffffffffffff168152602001600282015481526020016003820160009054906101000a900460ff161515151581526020016003820160019054906101000a900473ffffffffffffffffffffffffffffffffffffffff1673ffffffffffffffffffffffffffffffffffffffff1673ffffffffffffffffffffffffffffffffffffffff1681526020016004820154815250509050919050565b60026000541415610f87576040517f08c379a0000000000000000000000000000000000000000000000000000000008152600401610f7e90611758565b60405180910390fd5b600260008190555060008211610fd2576040517f08c379a0000000000000000000000000000000000000000000000000000000008152600401610fc990611778565b60405180910390fd5b610fdc60016111b3565b6000610fe860016111a5565b90506040518060c001604052808281526020018673ffffffffffffffffffffffffffffffffffffffff16815260200185815260200183151581526020013373ffffffffffffffffffffffffffffffffffffffff16815260200184815250600360008381526020019081526020016000206000820151816000015560208201518160010160006101000a81548173ffffffffffffffffffffffffffffffffffffffff021916908373ffffffffffffffffffffffffffffffffffffffff1602179055506040820151816002015560608201518160030160006101000a81548160ff02191690831515021790555060808201518160030160016101000a81548173ffffffffffffffffffffffffffffffffffffffff021916908373ffffffffffffffffffffffffffffffffffffffff16021790555060a082015181600401559050508473ffffffffffffffffffffffffffffffffffffffff166323b872dd3330876040518463ffffffff1660e01b815260040161116493929190611676565b600060405180830381600087803b15801561117e57600080fd5b505af1158015611192573d6000803e3d6000fd5b5050505050600160008190555050505050565b600081600001549050919050565b6001816000016000828254019250508190555050565b6040518060c0016040528060008152602001600073ffffffffffffffffffffffffffffffffffffffff16815260200160008152602001600015158152602001600073ffffffffffffffffffffffffffffffffffffffff168152602001600081525090565b60008135905061123c81611a21565b92915050565b60008135905061125181611a38565b92915050565b60008151905061126681611a38565b92915050565b60008135905061127b81611a4f565b92915050565b60008060006060848603121561129657600080fd5b60006112a48682870161122d565b93505060206112b58682870161122d565b92505060406112c68682870161126c565b9150509250925092565b600080600080608085870312156112e657600080fd5b60006112f48782880161122d565b94505060206113058782880161126c565b93505060406113168782880161126c565b925050606061132787828801611242565b91505092959194509250565b60006020828403121561134557600080fd5b600061135384828501611257565b91505092915050565b60006020828403121561136e57600080fd5b600061137c8482850161126c565b91505092915050565b60008060006060848603121561139a57600080fd5b60006113a88682870161126c565b93505060206113b986828701611242565b92505060406113ca8682870161122d565b9150509250925092565b600080604083850312156113e757600080fd5b60006113f58582860161126c565b92505060206114068582860161126c565b9150509250929050565b600061141c8383611562565b60c08301905092915050565b6114318161186e565b82525050565b6114408161186e565b82525050565b6000611451826117de565b61145b81856117f6565b9350611466836117ce565b8060005b8381101561149757815161147e8882611410565b9750611489836117e9565b92505060018101905061146a565b5085935050505092915050565b6114ad81611880565b82525050565b60006114c0602583611807565b91506114cb8261192e565b604082019050919050565b60006114e3601f83611807565b91506114ee8261197d565b602082019050919050565b6000611506601c83611807565b9150611511826119a6565b602082019050919050565b6000611529601f83611807565b9150611534826119cf565b602082019050919050565b600061154c601c83611807565b9150611557826119f8565b602082019050919050565b60c0820160008201516115786000850182611658565b50602082015161158b6020850182611428565b50604082015161159e6040850182611658565b5060608201516115b160608501826114a4565b5060808201516115c46080850182611428565b5060a08201516115d760a0850182611658565b50505050565b60c0820160008201516115f36000850182611658565b5060208201516116066020850182611428565b5060408201516116196040850182611658565b50606082015161162c60608501826114a4565b50608082015161163f6080850182611428565b5060a082015161165260a0850182611658565b50505050565b611661816118ac565b82525050565b611670816118ac565b82525050565b600060608201905061168b6000830186611437565b6116986020830185611437565b6116a56040830184611667565b949350505050565b60006040820190506116c26000830185611437565b6116cf6020830184611667565b9392505050565b600060208201905081810360008301526116f08184611446565b905092915050565b60006020820190508181036000830152611711816114b3565b9050919050565b60006020820190508181036000830152611731816114d6565b9050919050565b60006020820190508181036000830152611751816114f9565b9050919050565b600060208201905081810360008301526117718161151c565b9050919050565b600060208201905081810360008301526117918161153f565b9050919050565b600060c0820190506117ad60008301846115dd565b92915050565b60006020820190506117c86000830184611667565b92915050565b6000819050602082019050919050565b600081519050919050565b6000602082019050919050565b600082825260208201905092915050565b600082825260208201905092915050565b6000611823826118ac565b915061182e836118ac565b9250827fffffffffffffffffffffffffffffffffffffffffffffffffffffffffffffffff03821115611863576118626118ff565b5b828201905092915050565b60006118798261188c565b9050919050565b60008115159050919050565b600073ffffffffffffffffffffffffffffffffffffffff82169050919050565b6000819050919050565b60006118c1826118ac565b91507fffffffffffffffffffffffffffffffffffffffffffffffffffffffffffffffff8214156118f4576118f36118ff565b5b600182019050919050565b7f4e487b7100000000000000000000000000000000000000000000000000000000600052601160045260246000fd5b7f436f756c64206e6f742073656e642066756e647320746f2073656c6c6572206660008201527f756e647321000000000000000000000000000000000000000000000000000000602082015250565b7f436f756c64206e6f74207265636569766520656e6f7567682066756e64732100600082015250565b7f4f6e6c79206f776e657220616c6c6f77656420746f206d6f6469667900000000600082015250565b7f5265656e7472616e637947756172643a207265656e7472616e742063616c6c00600082015250565b7f5072696365206d757374206265206174206c6561737420312077656900000000600082015250565b611a2a8161186e565b8114611a3557600080fd5b50565b611a4181611880565b8114611a4c57600080fd5b50565b611a58816118ac565b8114611a6357600080fd5b5056fea26469706673582212209c6a117c85cecd7df3eb40be87aab94e2983fd1db17eea4b6beb1add8112025264736f6c63430008040033",
  "immutableReferences": {},
  "source": "// SPDX-License-Identifier: MIT\npragma solidity ^0.8.2;\nimport \"@openzeppelin/contracts/utils/Counters.sol\";\nimport \"@openzeppelin/contracts/security/ReentrancyGuard.sol\";\nimport \"@openzeppelin/contracts/token/ERC721/IERC721.sol\";\nimport \"@openzeppelin/contracts/token/ERC20/IERC20.sol\";\n\n\n\ncontract NftMarket is ReentrancyGuard {\n  using Counters for Counters.Counter;\n  Counters.Counter private _itemIds;\n  Counters.Counter private _itemsSold;\n  \n  constructor() {\n    \n  }\n\n  event Transfer(address indexed _from, address indexed _to, uint256 indexed _tokenId, uint256 _price);\n\n\n  struct MarketItem {\n    uint itemId;\n    address nftContract;\n    uint256 tokenId;\n    bool status;\n    address owner;\n    uint256 price;\n  }\n\n  mapping(uint256 => MarketItem) private idToMarketItem;\n\n\n  function getMarketItem(uint256 marketItemId) public view returns (MarketItem memory) {\n    return idToMarketItem[marketItemId];\n  }\n\n  function createMarketItem(\n    address nftContract,\n    uint256 tokenId,\n    uint256 price,\n    bool status\n  ) public nonReentrant {\n    require(price > 0, \"Price must be at least 1 wei\");\n    _itemIds.increment();\n    uint256 itemId = _itemIds.current();\n    idToMarketItem[itemId] =  MarketItem(\n      itemId,\n      nftContract,\n      tokenId,\n      status,\n      msg.sender,\n      price\n    );\n\n     IERC721(nftContract).transferFrom(msg.sender, address(this), tokenId);  \n\n  }\n\n  function createMarketSale(\n    address nftContract,\n    address tokenContract,\n    uint256 itemId\n    ) public nonReentrant {\n    uint price = idToMarketItem[itemId].price;\n    uint tokenId = idToMarketItem[itemId].tokenId;\n    address owner = idToMarketItem[itemId].owner;\n    require(IERC20(tokenContract).transferFrom(msg.sender,address(this),price),\"Could not receive enough funds!\");\n    require(IERC20(tokenContract).transfer(owner,price),\"Could not send funds to seller funds!\");\n    IERC721(nftContract).approve(msg.sender, tokenId);\n    idToMarketItem[itemId].owner = msg.sender;\n    _itemsSold.increment();\n    emit Transfer(owner, msg.sender, tokenId, price);\n  }\n\n  function updatePrice(\n    uint256 _itemId,\n    uint256 _newPrice\n  ) public nonReentrant {\n    require(msg.sender == idToMarketItem[_itemId].owner,\"Only owner allowed to modify\");\n     idToMarketItem[_itemId].price = _newPrice;\n  }\n\n  function updateNftStatus(\n    uint256 _itemId,\n    bool _status,\n    address nftContract\n  ) public nonReentrant {\n    require(msg.sender == idToMarketItem[_itemId].owner,\"Only owner allowed to modify\");\n    if(_status){\n     IERC721(nftContract).transferFrom(msg.sender, address(this), _itemId);  \n    }\n    else {\n      IERC721(nftContract).transferFrom(address(this),msg.sender, _itemId);  \n    }\n     idToMarketItem[_itemId].status = _status;\n  }\n\n  function fetchMarketItems() public view returns (MarketItem[] memory) {\n    uint totalItemCount = _itemIds.current();\n    uint itemCount = 0;\n    uint currentIndex = 0;\n\n    for (uint i = 0; i < totalItemCount; i++) {\n      if (idToMarketItem[i + 1].status) {\n        itemCount += 1;\n      }\n    }\n\n    MarketItem[] memory items = new MarketItem[](itemCount);\n    for (uint i = 0; i < totalItemCount; i++) {\n      if (idToMarketItem[i + 1].status) {\n        uint currentId = i + 1;\n        MarketItem storage currentItem = idToMarketItem[currentId];\n        items[currentIndex] = currentItem;\n        currentIndex += 1;\n      }\n    }\n   \n    return items;\n  }\n\n  function fetchMyNFTs() public view returns (MarketItem[] memory) {\n    uint totalItemCount = _itemIds.current();\n    uint itemCount = 0;\n    uint currentIndex = 0;\n\n    for (uint i = 0; i < totalItemCount; i++) {\n      if (idToMarketItem[i + 1].owner == msg.sender) {\n        itemCount += 1;\n      }\n    }\n\n    MarketItem[] memory items = new MarketItem[](itemCount);\n    for (uint i = 0; i < totalItemCount; i++) {\n      if (idToMarketItem[i + 1].owner == msg.sender) {\n        uint currentId = i + 1;\n        MarketItem storage currentItem = idToMarketItem[currentId];\n        items[currentIndex] = currentItem;\n        currentIndex += 1;\n      }\n    }\n   \n    return items;\n  }\n}",
  "sourcePath": "/Users/Danish.A.J/Documents/ethereum_marketplace/contracts/MarketPlace.sol",
  "compiler": {
    "name": "solc",
    "version": "0.8.4+commit.c7e474f2.Emscripten.clang"
  },
  "schemaVersion": "3.4.3",
  "updatedAt": "2021-11-08T06:57:00.610Z",
  "networkType": "ethereum",
  "devdoc": {
    "kind": "dev",
    "methods": {},
    "version": 1
  },
  "userdoc": {
    "kind": "user",
    "methods": {},
    "version": 1
  }
}